:060000000A128A11F32F21
:10000800F40074080F39F2007408F039F300831211
:10001800031308157308F10004300310F10CFF3EB8
:10002800031D112871080A128A15B0250A128A11AF
:100038008312031388154230F100F10B21280000C8
:1000480083120313881172080A128A15B0250A123E
:100058008A118312031388154230F100F10B3228FC
:100068000000831203138811080083120313A000F1
:1000780020080319402841285528F61F44284528F8
:1000880055287309A2007409A3007509A40076090C
:10009800A500A20A0319A30A0319A40A0319A50AA9
:1000A8005D287608A5007508A4007408A3007308E5
:1000B800A2007608750474047304031D6428652877
:1000C8006E280030F6000030F5000030F4000030F3
:1000D800F300F2289630A1007E280130FF007F0847
:1000E800A10701300310A50CA40CA30CA20CFF3E21
:1000F800031D7628FE302505031D832884287128D2
:10010800A0280130FF007F08A1070130A2070030B6
:1001180003180130A307003003180130A40700308A
:1001280003180130A50701300310A50CA40CA30C7B
:10013800A20CFF3E031D9828FF302505031DA528A6
:10014800A6288528B2280130A1020130F700031043
:10015800A20DA30DA40DA50DF70BAB28A41BB52864
:10016800B628BC28023021020318BB28BC28A728BF
:100178002118BF28C028C828FF30A205FF30A305D2
:100188007F30A405FF30A5050310A10C2108F70056
:10019800F801F901FA0118300310F70DF80DF90DFF
:1001A800FA0DFF3E031DD0287708A2047808A3049F
:1001B8007908A4047A08A50420080319E428E52886
:1001C800EA28F61FE828E928EA28A5172508F600EE
:1001D8002408F5002308F4002208F300080083121D
:1001E8000313AB002130A600B82925302C060319CB
:1001F800FE28FF2809292B0884002C088313800077
:100208000130FF007F08AB07B829A7010130A0071C
:10021800FF30200784000A128A150A200A128A1160
:10022800AC00A300A4012408003A03191C29B8292A
:100238002308003A0319C829643A031927290D3AF3
:1002480003192729B8292608840083130008A90060
:10025800840A0008AA000230FF007F08A607AA1F28
:100268003629372940290330FF007F08A704A90948
:10027800AA09A90A0319AA0AAC01AC0A2C08A30006
:100288002307013E84000A128A150A200A128A11DD
:10029800A4000A128A150A200A128A11A500250844
:1002A8002A02031D59292408290203185C295D29FB
:1002B8005E2968290130FF007F08AC0705302C064D
:1002C800031D6729682942292708033903196D295D
:1002D8006E2977292B0884002D3083138000013084
:1002E800FF007F08AB072C08A800AF290A30F700E9
:1002F8000030F8002808A3002307013E84000A12F2
:100308008A150A200A128A11F0000A128A150A2090
:100318000A128A11F1002A08F3002908F2000A12C9
:100328008A15A0260A128A117108FA007008F900C5
:100338000A128A1524260A128A117708303E831277
:100348000313AC002B0884002C08831380000130B1
:10035800FF007F08AB07FF30FF007F08A807280AC7
:10036800031DB729B8297A290130A007FF302007D3
:1003780084000A128A150A200A128A11AC002C0875
:10038800031DC729C829F9282B0884008313800175
:1003980008008316031388010A128A152A270A12ED
:1003A8008A110A128A158D250A128A1183120313DB
:1003B800E601E7010430F0000030F1000A128A1566
:1003C800F9250A128A11700883120313E2007108D2
:1003D800E300E401E5016508F6006408F500630838
:1003E800F4006208F30000300A128A1139200A1258
:1003F8008A11760883120313AD007508AC007408DF
:10040800AB007308AA004030A9005530A8001E3080
:10041800A700B830A6000A128A11AE240A128A115F
:10042800831203132908DD002808DC002708DB00F5
:100438002608DA000A128A1588270A128A118312F6
:1004480003135B08E9005A08E8006808F300690824
:10045800F4000030F41BFF30F500F60001300A12FA
:100468008A1139200A128A11760883120313AD0003
:100478007508AC007408AB007308AA004330A900E3
:100488001630A8000030A7000030A6000A128A1112
:10049800AE240A128A11831203132908C7002808F8
:1004A800C6002708C5002608C4004430C3007F30B2
:1004B800C200C030C1000030C0000A128A11DF2219
:1004C8000A128A11831203134308DD004208DC0074
:1004D8004108DB004008DA000A128A1588270A1248
:1004E8008A11831203135B08E7005A08E600F40137
:1004F800F40A01300A128A15E4260A128A11173002
:10050800F5008030F6000A128A155E260A128A1152
:10051800F401F40A09300A128A15E4260A128A112B
:100528001E3083120313A0006908A2006808A10006
:10053800AA300A128A11F3200A128A11AA30F50089
:100548000030F6000A128A155E260A128A11023055
:10055800F40002300A128A15E4260A128A110B30B6
:10056800F5008030F6000A128A155E260A128A11F2
:100578000230F4000A300A128A15E4260A128A1197
:100588001E3083120313A0006708A2006608A100AA
:10059800A0300A128A11F3200A128A11A030F5003D
:1005A8000030F6000A128A155E260A128A11DE2920
:1005B8000A128A1100288312031347088039D100D0
:1005C8004708C8004807D800C61FEB2AEC2AED2ABE
:1005D800581458080319F12AF22A022B580A031D45
:1005E800F62AF72AFF2A0030C7000030C60000307C
:1005F800C5000030C400C617C7010A2B0030C70069
:100608000030C6000030C5000030C40043088039FF
:10061800FF007F08D1064308C8004807D900C21F59
:10062800162B172B182B5914590803191C2B1D2B83
:100638002D2B590A031D212B222B2A2B0030C300F6
:100648000030C2000030C1000030C000C217C30132
:10065800352B0030C3000030C2000030C10000302C
:10066800C0004308420441044004031D3C2B3D2BB9
:10067800562B0030C7000030C6000030C5000030DF
:10068800C4008030C6047F30C7045108FF007F08CB
:10069800C7044708C3004608C2004508C10044080B
:1006A800C000AD2C5808031D5A2B5B2B642B00305F
:1006B800C3000030C2000030C1000030C000AD2CC3
:1006C8005808C800C9014908CB0059084802CA009F
:1006D800031CCB034A087F3ED2004B080318013E97
:1006E800003ED3004708D0004608CF004508CE009A
:1006F8004408CD000030C7000030C6000030C500F7
:100708000030C4000030D7000030D6000030D500DB
:100718000030D400D901DA2B59080319942B952BF2
:10072800B52B0130C8000310CD0DCE0DCF0DD00D67
:10073800C80B972B0130C8000310C40DC50DC60D9A
:10074800C70DC80BA02BD71FAA2BAB2BAC2B44145F
:100758000130C8000310D40DD50DD60DD70DC80B28
:10076800AE2B43085002031DC32B42084F02031D42
:10077800C32B41084E02031DC32B40084D02031C26
:10078800C62BC72BD62B57174008CD024108031C90
:10079800410FCE024208031C420FCF024308031C3C
:1007A800430FD0020130FF007F08D9071A305902E1
:1007B800031CDF2BE02B902B50084F044E044D04F4
:1007C8000319E72BE82B072C5414072C0130C80019
:1007D8000310C40DC50DC60DC70DC80BEC2BD71FD4
:1007E800F62BF72BF82B44140130C8000310D40D56
:1007F800D50DD60DD70DC80BFA2BFF30D20703182D
:10080800D30AFF30D307C61F0A2C0B2CEA2BD901B9
:10081800D71F0F2C102C2C2CFF305405C800FF308C
:100828005505C900FF305605CA007F305705CB0073
:100838004B084A04490448040319232C242C272C68
:10084800D901D90A2C2C441C2A2C2B2C2C2C242CD6
:1008580059080319302C312C622C0130C4070030A0
:1008680003180130C507003003180130C6070030EF
:1008780003180130C707471C422C432C622C44083C
:10088800C8004508C9004608CA004708CB0001301F
:10089800CC004B0DCB0CCA0CC90CC80CCC0B4D2C86
:1008A8004B08C7004A08C6004908C5004808C400E4
:1008B8000130D2070318D30A0030D3075308803A0F
:1008C800FF0080307F02031D6B2CFF305202031C97
:1008D8006E2C6F2C7D2CFF3083120313D200003056
:1008E800D3000030C7000030C6000030C50000301B
:1008F800C400831203135308803AFF0080307F023C
:10090800031D882C0130520203188B2C8C2C992C37
:1009180083120313D201D3010030C7000030C60090
:100928000030C5000030C400D101831203135208FF
:10093800D800581CA02CA12CA32CC617A72C7F309C
:10094800FF007F08C6055808C8000310480CC700F8
:10095800492B08008312031329088039B30029089A
:10096800AE002E07B900A81FBA2CBB2CBC2C39141A
:1009780039080319C02CC12CD02C390A031DC52CE9
:10098800C62CCE2C0030A9000030A8000030A700EB
:100998000030A600A817D82C0030A9000030A80005
:1009A8000030A7000030A6002D088039FF007F081E
:1009B800B3062D08AE002E07B800AC1FE42CE52CBA
:1009C800E62C381438080319EA2CEB2CFA2C380AD0
:1009D800031DEF2CF02CF82C0030AD000030AC00DB
:1009E8000030AB000030AA00AC17022D0030AD007B
:1009F8000030AC000030AB000030AA003808031902
:100A0800062D072D0C2D3908031D0B2D0C2D152D2A
:100A18000030A9000030A8000030A7000030A60070
:100A2800F22F2608F0002C080A128A15D2250A127D
:100A38008A11710883120313BF007008BE003E08B4
:100A4800AE00AF01B001B1013108B7003008B600FF
:100A58002F08B5002E08B4003F08AE00AF01B00162
:100A6800B1013108BD003008BC002F08BB002E08BA
:100A7800BA002708F0002B080A128A15D2250A1294
:100A88008A11710883120313BF007008BE003E0864
:100A9800AE00AF01B001B1012E08B4072F08031151
:100AA8000318013E0319592DB5073008031103181F
:100AB800013E0319602DB607310803110318013EE2
:100AC8000319672DB7073F08AE00AF01B001B101A8
:100AD8002E08BA072F0803110318013E0319752DB4
:100AE800BB07300803110318013E03197C2DBC070E
:100AF800310803110318013E0319832DBD07280887
:100B0800F0002A080A128A15D2250A128A117108D9
:100B180083120313BF007008BE003E08AE00AF0189
:100B2800B001B1012E08B4072F0803110318013EC4
:100B380003199F2DB507300803110318013E031947
:100B4800A62DB607310803110318013E0319AD2D70
:100B5800B7073F08AE00AF01B001B1012E08BA07D0
:100B68002F0803110318013E0319BB2DBB073008DA
:100B780003110318013E0319C22DBC0731080311E4
:100B88000318013E0319C92DBD070830AE00031034
:100B9800B40DB50DB60DB70DAE0BCB2D2708F00073
:100BA8002A080A128A15D2250A128A117108831294
:100BB8000313BF007008BE003E08AE003F08AF0038
:100BC800B001B1012E08B4072F0803110318013E24
:100BD8000319EF2DB507300803110318013E031957
:100BE800F62DB607310803110318013E0319FD2D30
:100BF800B7072608F0002B080A128A15D2250A1210
:100C08008A11710883120313BF007008BE003E08E2
:100C1800AE003F08AF00B001B1012E08B4072F089D
:100C280003110318013E03191A2EB50730080311E2
:100C38000318013E0319212EB607310803110318C2
:100C4800013E0319282EB7070830AE000310B40D73
:100C5800B50DB60DB70DAE0B2A2E2608F0002A08E2
:100C68000A128A15D2250A128A11710883120313EF
:100C7800BF007008BE003E08AE003F08AF00B001DC
:100C8800B1012E08B4072F0803110318013E0319F8
:100C98004E2EB507300803110318013E0319552ECF
:100CA800B607310803110318013E03195C2EB70774
:100CB8002708F0002C080A128A15D2250A128A1170
:100CC800710883120313BF007008BE003E08AE000F
:100CD8003F08AF00B001B1012E08BA072F08031171
:100CE8000318013E0319792EBB07300803110318B6
:100CF800013E0319802EBC07310803110318013E79
:100D08000319872EBD072808F0002B080A128A1538
:100D1800D2250A128A11710883120313BF007008C2
:100D2800BE003E08AE003F08AF00B001B1012E087A
:100D3800BA072F0803110318013E0319A42EBB0795
:100D4800300803110318013E0319AB2EBC07310804
:100D580003110318013E0319B22EBD072808F0003D
:100D68002C080A128A15D2250A128A1171088312D0
:100D78000313BF007008BE003E08AE003F08AF0076
:100D8800B001B10108300310AE0DAF0DB00DB10DBB
:100D9800FF3E031DC72E2E08BA072F08031103189C
:100DA800013E0319D82EBB07300803110318013E72
:100DB8000319DF2EBC07310803110318013E03197C
:100DC800E62EBD073408AE003508AF003608B0007F
:100DD8003708B10018300310B10CB00CAF0CAE0CD2
:100DE800FF3E031DEF2E2E08BA072F080311031824
:100DF800013E0319002FBB07300803110318013EF9
:100E08000319072FBC07310803110318013E031902
:100E18000E2FBD070830AE000310B40DB50DB60D8A
:100E2800B70DAE0B102F39083807AE00AF01AF0D64
:100E38002E08823EBE002F080318013EFF3EBF0069
:100E4800422F0130AE000310BA0DBB0DBC0DBD0D15
:100E5800AE0B272FB71F312F322F332F3A14013003
:100E6800AE000310B40DB50DB60DB70DAE0B352F92
:100E7800FF30BE070318BF0AFF30BF07BC1F452F4E
:100E8800462F252FB801B71F4A2F4B2F672FFF304A
:100E98003405AE00FF303505AF00FF303605B00031
:100EA8007F303705B100310830042F042E040319B0
:100EB8005E2F5F2F622FB801B80A672F3A1C652F83
:100EC800662F672F5F2F380803196B2F6C2F9D2F04
:100ED8000130BA07003003180130BB07003003188F
:100EE8000130BC07003003180130BD073D1C7D2FC1
:100EF8007E2F9D2F3A08AE003B08AF003C08B0009B
:100F08003D08B1000130B200310DB10CB00CAF0C8E
:100F1800AE0CB20B882F3108BD003008BC002F087A
:100F2800BB002E08BA000130BE070318BF0A003004
:100F3800BF073F08803AFF0080307F02031DA62FBD
:100F4800FF303E02031CA92FAA2FB52F7F30831232
:100F58000313BD008030BC000030BB000030BA0075
:100F6800E62F831203133F08803AFF0080307F0288
:100F7800031DC02F01303E020318C32FC42FD02FEA
:100F8800003083120313BD000030BC000030BB00EA
:100F98000030BA00B301E62F831203133E08B900EC
:100FA800FF30BA05FF30BB057F30BC050030BD05FA
:100FB800391CDF2FE02FE12FBC173908AE000310D2
:100FC8002E0CBD003308FF007F08BD043D08A900B2
:100FD8003C08A8003B08A7003A08A60008008313AD
:100FE800A0308400B4300A128A1585250A128A11A5
:100FF80083010A128A11CD29FF1B0A2883137F183F
:1010080083170008840A0319FF0A080008308A00B9
:101018000408840A82070034013400340A34003496
:1010280064340034E8340334103427344E346834DC
:10103800693465347434203444346F3420343A3499
:101048002034003441344434433420343A34203496
:08105800003425346434003437
:101B0A0064008001840A0406031900340406862D41
:101B1A000130831203139F008030831603139F0042
:101B2A000800F30083120313081173080A128A15B6
:101B3A00B0250A128A158312031388151A30F20087
:101B4A00F830F100F10BA72DF20BA72D000083123C
:101B5A00031388110800F000701CB42DB52DB92D9F
:101B6A00831203130816BC2D831203130812F01CE8
:101B7A00BF2DC02DC22D8816C32D8812701DC62DEB
:101B8A00C72DC92D0817CA2D0813F01DCD2DCE2D2E
:101B9A00D02D8817D12D88130800F800F401F5011B
:101BAA007008F200F3017208F6007308F700781C57
:101BBA00DF2DE02DE62D7608F4070318F50A7708DD
:101BCA00F50701300310F60DF70DFF3E031DE72D53
:101BDA000310F80C7808031DF32DF42DDC2D75087D
:101BEA00F1007408F00008007108803AFF008030A4
:101BFA007F02031D022E08307002031C052E062EDA
:101C0A00092EF001F101232E7008F20002300310B0
:101C1A00F20DFF3E031D0C2E0310720DFF007F080C
:101C2A00831203139F041F151F191C2E1D2E192E14
:101C3A001E08F100831603131E08F0000800770837
:101C4A0078040319292E2A2E592EFB01FB0A382E55
:101C5A0001300310F70DF80DFF3E031D2E2E013043
:101C6A00FF007F08FB07F81F3B2E3C2E2D2E78081D
:101C7A007A02031D422E77087902031C452E462E4E
:101C8A004C2E7708F9027808031CFA03FA0201308D
:101C9A000310F80CF70CFF3E031D4D2E0130FB021A
:101CAA00031D582E592E3C2E7A08F8007908F700A1
:101CBA000800FA01FB01832E7A087507F8007608F6
:101CCA00F7000318F70AFA1F6B2EF7037708F900D3
:101CDA00790883120313FF00780884000A128A1510
:101CEA0000200A128A150A128A1104200A128A1579
:101CFA000130FA070318FB0A0030FB077A08750758
:101D0A00F8007608F7000318F70AFA1F8D2EF70372
:101D1A007708F900790883120313FF007808840012
:101D2A000A128A1500200A128A15003A031D9E2EED
:101D3A009F2E612E0800F401F50170087104031941
:101D4A00A72EA82EDF2EF601F60AB62E01300310B2
:101D5A00F00DF10DFF3E031DAC2E0130FF007F0890
:101D6A00F607F11FB92EBA2EAB2E01300310F40D6F
:101D7A00F50DFF3E031DBB2E71087302031DC72E0E
:101D8A0070087202031CCA2ECB2ED22E7008F202E1
:101D9A007108031CF303F302741401300310F10CED
:101DAA00F00CFF3E031DD32E0130F602031DDE2E7A
:101DBA00DF2EBA2E7508F1007408F0000800F6004C
:101DCA007603031DE92EEA2E072F74087F3EF900D9
:101DDA007908F50004300310F50CFF3E031DF02EC0
:101DEA007508F70079080F39F80077080A128A157A
:101DFA0096250A128A1578080A128A1596250A1251
:101E0A008A15292F02307606031D0C2F0D2F292F34
:101E1A007408BF3EF9007908F50004300310F50C88
:101E2A00FF3E031D132F7508F70079080F39F800D4
:101E3A0077080A128A1596250A128A1578080A124C
:101E4A008A1596250A128A15080000300A128A1580
:101E5A00B0250A128A158230F500DD30F400F40B41
:101E6A00342FF50B342F392F03300A128A15962591
:101E7A000A128A152130F5007630F400F40B432F4C
:101E8A00F50B432F000003300A128A1596250A1211
:101E9A008A154830F5006C30F400F40B522FF50B1C
:101EAA00522F000003300A128A1596250A128A1543
:101EBA0002300A128A1596250A128A1502300A1267
:101ECA008A1596250A128A1508300A128A15962545
:101EDA000A128A1500300A128A1596250A128A15DC
:101EEA000C300A128A1596250A128A1500300A122F
:101EFA008A1596250A128A1506300A128A15962517
:101F0A000A128A1508000310831203135C0D5D0D73
:101F1A00FC007C08031D922F932F9C2F0030DD00BC
:101F2A000030DC000030DB000030DA00FF2F5A08F6
:101F3A00DE005B08DF005C08E0005D08E1001F309E
:101F4A000310E10CE00CDF0CDE0CFF3E031DA52F95
:101F5A005E08FB00DC17FF30DA05FF30DB05FF30D7
:101F6A00DC050030DD059630FC02FC1FBD2FBE2FBC
:101F7A00D82F7C08803A973E0318C42FC52FC62F46
:101F8A00932F01300310DD0CDC0CDB0CDA0CFF3E66
:101F9A00031DC72F0130FF007F08FC07031DD62F42
:101FAA00D72FC62FEF2F20307C02031CDD2FDE2F08
:101FBA00EA2F932F0130DE000310DA0DDB0DDC0D62
:101FCA00DD0DDE0BE12F0130FC027C08031DEE2F34
:101FDA00EF2FDF2F7B080319F32FF42FFF2FDA09D6
:101FEA00DB09DC09DD09DA0A0319DB0A0319DC0A51
:061FFA000319DD0A0800D6
:02400E00FA3F77
:00000001FF
