:060000000A128A11EE2F26
:100CBA003F3406345B344F3466346D347D34073444
:100CCA007F346F347E088A007F0882000A128A11F4
:100CDA0067260A128A118000840A04087D0603190D
:100CEA000034FF0A0319FE0A6B2EF501F31F7E2E4C
:100CFA007F2E862EF209F309F20A0319F30AF50187
:100D0A00F50AF11F892E8A2E8F2EF009F109F00AB1
:100D1A000319F10A700871040319942E952EC42E32
:100D2A00F401F40AA32E01300310F00DF10DFF3E79
:100D3A00031D992E0130FF007F08F407F11FA62E2C
:100D4A00A72E982E71087302031DAD2E7008720229
:100D5A00031CB02EB12EB72E7008F2027108031CC4
:100D6A00F303F30201300310F10CF00CFF3E031DF4
:100D7A00B82E0130F402031DC32EC42EA72E750807
:100D8A000319C82EC92ECE2EF209F309F20A031945
:100D9A00F30A7308F1007208F0000800F501F11F68
:100DAA00D72ED82EDF2EF009F109F00A0319F10A1D
:100DBA00F501F50AF31FE22EE32EEC2EF209F309F0
:100DCA00F20A0319F30A0130FF007F08F506F6015B
:100DDA00F701700871040319F32EF42E2B2FF40176
:100DEA00F40A022F01300310F00DF10DFF3E031D2E
:100DFA00F82E0130FF007F08F407F11F052F062F98
:100E0A00F72E01300310F60DF70DFF3E031D072FD5
:100E1A0071087302031D132F70087202031C162F28
:100E2A00172F1E2F7008F2027108031CF303F30236
:100E3A00761401300310F10CF00CFF3E031D1F2F36
:100E4A000130F402031D2A2F2B2F062F75080319D0
:100E5A002F2F302F352FF609F709F60A0319F70A4B
:100E6A007708F1007608F0000800013083120313B6
:100E7A00B2000030B3000130AE000030AF0083167C
:100E8A0003138601870183120313860187010A303F
:100E9A00F0000030F100831203133308F300320824
:100EAA00F2000A128A117A260A128A11710883122A
:100EBA000313AD007008AC000A30F0000030F100F6
:100ECA003308F3003208F2000A128A11D3260A12F2
:100EDA008A11710883120313AB007008AA00B001CB
:100EEA00B10102308312031387002A08203E8400CE
:100EFA008313000886002130F9007630F800F80BD9
:100F0A00842FF90B842F000001308312031387000A
:100F1A002C08203E84008313000886002130F90043
:100F2A007630F800F80B972FF90B972F0000013055
:100F3A0083120313B0070318B10A0030B10731084E
:100F4A00803AFF0080307F02031DAD2F64303002EB
:100F5A00031CB02FB12F762F831203132E08B2076A
:100F6A000318B30A2F08B3073308803AFF0080300A
:100F7A007F02031DC22F64303202031CC52FC62F05
:100F8A00D12F633083120313B2000030B300FF3055
:100F9A00AE00FF30AF004C2F831203133308803AA0
:100FAA00FF0080307F02031DDC2F0130320203185C
:100FBA00DF2FE02F4C2F013083120313B2000030D1
:100FCA00B3000130AE000030AF004C2F0A128A1174
:100FDA00002883132A30FD000630FE005D30FF0032
:100FEA00203084000A128A116B260A128A118301A0
:060FFA000A128A113A2FD1
:02400E00FA3F77
:00000001FF
