:060000000A128A11EE2F26
:100F54003F3406345B344F3466346D347D340734A7
:100F64007F346F347E088A007F0882000A128A1157
:100F7400B4270A128A118000840A04087D06031922
:100F84000034FF0A0319FE0AB82F0130F3000030C1
:100F9400F400831603138601870183120313860169
:100FA400870101308312031387007308203E8400F5
:100FB4008313000886001A30F2005E30F1006E30B0
:100FC400F000F00BE32FF10BE32FF20BE32F000003
:100FD400D32F0A128A11002883132A30FD00073008
:100FE400FE00AA30FF00203084000A128A11B827BC
:0C0FF4000A128A1183010A128A11C72F09
:02400E00FA3F77
:00000001FF
