:060000000A128A11EE2F26
:100D00003F3406345B344F3466346D347D340734FD
:100D10007F346F347E088A007F0882000A128A11AD
:100D20008A260A128A118000840A04087D060319A3
:100D30000034FF0A0319FE0A8E2E83160313860160
:100D4000831203138601831603138701831203138F
:100D50008701AD01AB012D080A128A11E2260A12A1
:100D60008A110130FF007F0883120313AB07643040
:100D70002B02031CBC2EBD2EAB2E0130FF007F08C2
:100D8000AD073D302D02031CC62EC72EAA2E3C30C7
:100D9000AA00AC012A080A128A11E2260A128A1154
:100DA0000130FF007F0883120313AC0764302C026C
:100DB000031CDB2EDC2ECA2E0130AA02C92E0A1219
:100DC0008A110028FC000A30F0000030F1007C0895
:100DD000F800F9017808F2007908F3000A128A1184
:100DE0002E270A128A117008FA000A30F00000302B
:100DF000F1007C08F800F9017808F2007908F300A6
:100E00000A128A1187270A128A117008FB00023021
:100E10008312031387007B08203E8400831300089D
:100E200086002130F9007630F800F80B152FF90B09
:100E3000152F000001308312031387007A08203E2B
:100E400084008313000886002130F9007630F80012
:100E5000F80B282FF90B282F00000800F501F31FCD
:100E6000322F332F3A2FF209F309F20A0319F30A4A
:100E7000F501F50AF11F3D2F3E2F432FF009F1092F
:100E8000F00A0319F10A700871040319482F492F59
:100E9000782FF401F40A572F01300310F00DF10DF3
:100EA000FF3E031D4D2F0130FF007F08F407F11FA7
:100EB0005A2F5B2F4C2F71087302031D612F70088E
:100EC0007202031C642F652F6B2F7008F2027108E9
:100ED000031CF303F30201300310F10CF00CFF3E8E
:100EE000031D6C2F0130F402031D772F782F5B2F29
:100EF000750803197C2F7D2F822FF209F309F20A5E
:100F00000319F30A7308F1007208F0000800F501F4
:100F1000F11F8B2F8C2F932FF009F109F00A031981
:100F2000F10AF501F50AF31F962F972FA02FF2096A
:100F3000F309F20A0319F30A0130FF007F08F506EE
:100F4000F601F701700871040319A72FA82FDF2FEE
:100F5000F401F40AB62F01300310F00DF10DFF3E3D
:100F6000031DAC2F0130FF007F08F407F11FB92FDC
:100F7000BA2FAB2F01300310F60DF70DFF3E031D06
:100F8000BB2F71087302031DC72F70087202031C68
:100F9000CA2FCB2FD22F7008F2027108031CF30363
:100FA000F302761401300310F10CF00CFF3E031D28
:100FB000D32F0130F402031DDE2FDF2FBA2F750867
:100FC0000319E32FE42FE92FF609F709F60A0319AD
:100FD000F70A7708F1007608F000080083132A303A
:100FE000FD000630FE008030FF00203084000A1231
:100FF0008A118E260A128A1183010A128A119D2EE5
:02400E00FA3F77
:00000001FF
