:060000000A128A110C280F
:10000800FE00030EF0000A08F1000A128A114228C5
:100018000A128A110F2883010A128A1113288316DB
:10002800031386018312031386010A128A115420CE
:100038000A128A118312031306114D30F400193085
:10004800F3004F30F200F20B2728F30B2728F40BAC
:1000580027282E288312031306154D30F400193073
:10006800F3004F30F200F20B3728F30B3728F40B6C
:1000780037283E281E280A128A110C280B1D4528ED
:1000880046284D280B113C3083120313810002309F
:10009800860671088A00700E8300FE0E7E0E090027
:1000A8008B178B1683160313011481140115811104
:0C00B80081123C30831203138100080009
:02400E003A3F37
:00000001FF
