:100000000A128A11E62F00308A000408840A820747
:100010000034013400340A34003464340034E834E9
:0C002000033410342734253464340034D9
:100A5C00C8340134F30083120313081173080A120B
:100A6C008A116B250A128A118312031388151A3006
:100A7C00F200F830F100F10B412DF20B412D00008A
:100A8C008312031388110800F800F601F7015F2D9B
:100A9C0076087807F5007508840000080A128A1198
:100AAC00B5250A128A110130F6070318F70A00302F
:100ABC00F70776087807F50075088400831300089B
:100ACC00031D692D6A2D4E2D0800F000701C6F2D32
:100ADC00702D742D831203130816772D83120313B4
:100AEC000812F01C7A2D7B2D7D2D88167E2D8812F8
:100AFC00701D812D822D842D0817852D0813F01D56
:100B0C00882D892D8B2D88178C2D88130800831622
:100B1C00031388010A128A11AE260A128A11F401F3
:100B2C00F40A01300A128A1168260A128A110B3053
:100B3C0083120313A000C830A1000130A2002D3095
:100B4C000A128A110C270A128A112D300A128A11E4
:100B5C004A250A128A11952D0A128A110028F400CE
:100B6C0074080F39F2007408F039F3008312031380
:100B7C0008157308F10004300310F10CFF3E031D3F
:100B8C00C22D71080A128A116B250A128A1183125E
:100B9C00031388154230F100F10BD22D00008312A3
:100BAC000313881172080A128A116B250A128A1112
:100BBC008312031388154230F100F10BE32D000072
:100BCC008312031388110800770878040319EF2D9A
:100BDC00F02D1F2EFB01FB0AFE2D01300310F70D2B
:100BEC00F80DFF3E031DF42D0130FF007F08FB07BD
:100BFC00F81F012E022EF32D78087A02031D082E01
:100C0C0077087902031C0B2E0C2E122E7708F90292
:100C1C007808031CFA03FA0201300310F80CF70CE5
:100C2C00FF3E031D132E0130FB02031D1E2E1F2E33
:100C3C00022E7A08F8007908F7000800F401F50193
:100C4C007008710403192B2E2C2E632EF601F60A54
:100C5C003A2E01300310F00DF10DFF3E031D302E26
:100C6C000130FF007F08F607F11F3D2E3E2E2F2E80
:100C7C0001300310F40DF50DFF3E031D3F2E7108DE
:100C8C007302031D4B2E70087202031C4E2E4F2E46
:100C9C00562E7008F2027108031CF303F30274144D
:100CAC0001300310F10CF00CFF3E031D572E0130E8
:100CBC00F602031D622E632E3E2E7508F100740899
:100CCC00F0000800F6007603031D6D2E6E2E8B2EA1
:100CDC0074087F3EF9007908F50004300310F50C18
:100CEC00FF3E031D742E7508F70079080F39F800C4
:100CFC0077080A128A1130250A128A1178080A120A
:100D0C008A1130250A128A11AD2E02307606031D87
:100D1C00902E912EAD2E7408BF3EF9007908F50087
:100D2C0004300310F50CFF3E031D972E7508F700D9
:100D3C0079080F39F80077080A128A1130250A123F
:100D4C008A1178080A128A1130250A128A110800B1
:100D5C0000300A128A116B250A128A118230F500B2
:100D6C00DD30F400F40BB82EF50BB82EBD2E03308D
:100D7C000A128A1130250A128A112130F5007630B8
:100D8C00F400F40BC72EF50BC72E000003300A122B
:100D9C008A1130250A128A114830F5006C30F400A3
:100DAC00F40BD62EF50BD62E000003300A128A1146
:100DBC0030250A128A1102300A128A1130250A12C1
:100DCC008A1102300A128A1130250A128A1108304F
:100DDC000A128A1130250A128A1100300A128A115D
:100DEC0030250A128A110C300A128A1130250A1287
:100DFC008A1100300A128A1130250A128A11063023
:100E0C000A128A1130250A128A1108008312031360
:100E1C00AB002130A600D12F25302C060319172F3B
:100E2C00182F222F2B0884002C08831380000130EC
:100E3C00FF007F08AB07D12FA7010130A007FF30BF
:100E4C00200784000A128A1103200A128A11AC00AE
:100E5C00A300A4012408003A0319352FD12F23082D
:100E6C00003A0319E12F643A0319402F0D3A031984
:100E7C00402FD12F2608840083130008A900840A70
:100E8C000008AA000230FF007F08A607AA1F4F2FF8
:100E9C00502F592F0330FF007F08A704A909AA0976
:100EAC00A90A0319AA0AAC01AC0A2C08A30023074F
:100EBC00013E84000A128A1103200A128A11A4002E
:100ECC000A128A1103200A128A11A50025082A0287
:100EDC00031D722F240829020318752F762F772FE4
:100EEC00812F0130FF007F08AC0705302C06031D55
:100EFC00802F812F5B2F270803390319862F872F0B
:100F0C00902F2B0884002D30831380000130FF00BC
:100F1C007F08AB072C08A800C82F0A30F700003058
:100F2C00F8002808A3002307013E84000A128A1146
:100F3C0003200A128A11F0000A128A1103200A12E5
:100F4C008A11F1002A08F3002908F2000A128A110A
:100F5C0024260A128A117108FA007008F9000A1284
:100F6C008A11EA250A128A117708303E831203137C
:100F7C00AC002B0884002C08831380000130FF0088
:100F8C007F08AB07FF30FF007F08A807280A031D66
:100F9C00D02FD12F932F0130A007FF3020078400D2
:100FAC000A128A1103200A128A11AC002C08031DA4
:100FBC00E02FE12F122F2B088400831380010800EF
:100FCC000A128A112E250A128A11B7000A128A11E6
:100FDC002F250A128A11B800AD01AE01AF01B00184
:100FEC00B101B201B301B401B501B60183010A121A
:040FFC008A118D2D9C
:02400E00FA3F77
:00000001FF
