:060000000A128A11EE2F26
:100F30003F3406345B344F3466346D347D340734CB
:100F40007F346F347E088A007F0882000A128A117B
:100F5000A2270A128A118000840A04087D06031958
:100F60000034FF0A0319FE0AA62F83160313860115
:100F7000831203138601831603138701F301F4011F
:100F80007308203E84008313000883120313860035
:100F90001A30F2005E30F1006E30F000F00BCE2F10
:100FA000F10BCE2FF20BCE2F00000130F307031808
:100FB000F40A0030F4077408803AFF0080307F02A2
:100FC000031DE42F0A307302031CE72FE82FC02F04
:100FD000F301F401C02F0A128A11002883132A306A
:100FE000FD000730FE009830FF00203084000A1218
:100FF0008A11A6270A128A1183010A128A11B52FB3
:02400E00FA3F77
:00000001FF
