:060000000A128A11FC2F18
:100F7400C92F0730F3007D30F200F20BBF2FF30BC3
:100F8400BF2F0130F0020030031CF103F10270089E
:100F94007104031DCE2FCF2FBB2F0800831603131C
:100FA40086018312031386018316031387018312B8
:100FB40003138701FB3087001030F0002730F10065
:100FC4000A128A11BA270A128A118312031387019B
:100FD400F73087009830F0003A30F1000A128A1195
:100FE400BA270A128A11831203138701DC2F0A120B
:0C0FF4008A11002883010A128A11D02FF4
:02400E00FA3F77
:00000001FF
