:060000000A128A11FC2F18
:100ECC0083160313860183120313860101308316E4
:100EDC000313870083120313870183120313061570
:100EEC000D30F200AF30F100B630F000F00B7C2F7B
:100EFC00F10B7C2FF20B7C2F0000831203130611D5
:100F0C000D30F200AF30F100B630F000F00B8C2F4A
:100F1C00F10B8C2FF20B8C2F000083120313061590
:100F2C000830F2009D30F1000530F000F00B9C2FE2
:100F3C00F10B9C2FF20B9C2FA32F83120313061182
:100F4C000830F2009D30F1000530F000F00BAC2FB2
:100F5C00F10BAC2FF20BAC2FB32F8312031307182A
:100F6C00B82FB92FD92F861406100D30F200AF30E0
:100F7C00F100B630F000F00BC12FF10BC12FF20BCA
:100F8C00C12F00008312031306140D30F200AF3092
:100F9C00F100B630F000F00BD12FF10BD12FF20B8A
:100FAC00D12F0000732F061486100630F200133078
:100FBC00F100AD30F000F00BE12FF10BE12FF20B53
:100FCC00E12FE82F8312031386141530F2004B30F7
:100FDC00F100BE30F000F00BF12FF10BF12FF20B02
:100FEC00F12F0000732F0A128A11002883010A12B4
:040FFC008A11662FC1
:02400E00FA3F77
:00000001FF
