:100000000A128A11FC2F00308A000408840A820731
:10001000003447344F344A344F34203420342034B1
:100020002034203400345334413454344F34523467
:10003000553420342034203400344934543441348D
:1000400044344F345234493420342034003454344E
:1000500041344B3445344D344934433448344934C5
:0200600000346A
:100CB400F30083120313081173080A128A117426AD
:100CC4000A128A118312031388151A30F200F830BD
:100CD400F100F10B6B2EF20B6B2E00008312031349
:100CE40088110800F000701C782E792E7D2E831256
:100CF40003130816802E831203130812F01C832E8C
:100D0400842E862E8816872E8812701D8A2E8B2E8E
:100D14008D2E08178E2E0813F01D912E922E942ED0
:100D24008817952E88130800F700F501F601AD2EFB
:100D34007508770784000A128A1103200A128A119F
:100D44000A128A11BB260A128A110130F507031808
:100D5400F60A0030F6077508770784000A128A112C
:100D640003200A128A11003A031DB92EBA2E9A2EB4
:100D74000800F40074080F39F2007408F039F30025
:100D84008312031308157308F10004300310F10CE7
:100D9400FF3E031DC82E71080A128A1174260A1216
:100DA4008A118312031388154230F100F10BD82EF7
:100DB400000083120313881172080A128A11742620
:100DC4000A128A118312031388154230F100F10BC1
:100DD400E92E00008312031388110800F60076033D
:100DE400031DF52EF62E132F74087F3EF9007908A3
:100DF400F50004300310F50CFF3E031DFC2E7508AE
:100E0400F70079080F39F80077080A128A115A2670
:100E14000A128A1178080A128A115A260A128A11A9
:100E2400352F02307606031D182F192F352F74081D
:100E3400BF3EF9007908F50004300310F50CFF3EBD
:100E4400031D1F2F7508F70079080F39F80077087C
:100E54000A128A115A260A128A1178080A128A1169
:100E64005A260A128A11080000300A128A117426BE
:100E74000A128A118230F500DD30F400F40B402FA1
:100E8400F50B402F452F03300A128A115A260A12F5
:100E94008A112130F5007630F400F40B4F2FF50B56
:100EA4004F2F000003300A128A115A260A128A119F
:100EB4004830F5006C30F400F40B5E2FF50B5E2F18
:100EC400000003300A128A115A260A128A110230CB
:100ED4000A128A115A260A128A1102300A128A1137
:100EE4005A260A128A1108300A128A115A260A123C
:100EF4008A1100300A128A115A260A128A110C30F9
:100F04000A128A115A260A128A1100300A128A1108
:100F14005A260A128A1106300A128A115A260A120D
:100F24008A110800033083160313860088010A120D
:100F34008A1136270A128A11003083120313061805
:100F44000130FA00003086180130FB0083120313CD
:100F5400060801397A060319B02FB12FD02F0030BB
:100F640006180130FA00F401F40A01300A128A1159
:100F7400F0260A128A11831203130618C22FC32FF4
:100F8400CA2F01300A128A1196260A128A11D02F0A
:100F94000B300A128A1196260A128A11831203133D
:100FA400060C01397B060319D82FD92FA82F00303E
:100FB40086180130FB00F401F40A02300A128A1187
:100FC400F0260A128A11831203138618EA2FEB2FD4
:100FD400F22F15300A128A1196260A128A11A82FA6
:100FE4001F300A128A1196260A128A11A82F0A1291
:0C0FF4008A11002883010A128A11942F30
:02400E00FA3F77
:00000001FF
