:060000000A128A11FC2F18
:100ED60083160313860183120313860101308312DE
:100EE600031386001A30F2005E30F1006E30F00017
:100EF600F00B7B2FF10B7B2FF20B7B2F00000330C7
:100F06008312031386001A30F2005E30F1006E3051
:100F1600F000F00B8C2FF10B8C2FF20B8C2F0000B6
:100F260007308312031386001A30F2005E30F10098
:100F36006E30F000F00B9D2FF10B9D2FF20B9D2FC5
:100F460000000F308312031386001A30F2005E3061
:100F5600F1006E30F000F00BAE2FF10BAE2FF20B5E
:100F6600AE2F00000E308312031386001A30F200F3
:100F76005E30F1006E30F000F00BBF2FF10BBF2F8B
:100F8600F20BBF2F00000C308312031386001A30B9
:100F9600F2005E30F1006E30F000F00BD02FF10B56
:100FA600D02FF20BD02F00000830831203138600D7
:100FB6001A30F2005E30F1006E30F000F00BE12FD7
:100FC600F10BE12FF20BE12F0000831203138601D0
:100FD6001A30F2005E30F1006E30F000F00BF12FA7
:100FE600F10BF12FF20BF12F0000712F0A128A116B
:0A0FF600002883010A128A116B2FF4
:02400E00FA3F77
:00000001FF
