:060000000A128A11EE2F26
:100E4A003F3406345B344F3466346D347D340734B2
:100E5A007F346F347E088A007F0882000A128A1162
:100E6A002F270A128A118000840A04087D060319B2
:100E7A000034FF0A0319FE0A332FF301F401033089
:100E8A008316031386008312031386018316031342
:100E9A008801831203138801200888000618562F38
:100EAA00572F872F0630F2001330F100AD30F000D3
:100EBA00F00B5D2FF10B5D2FF20B5D2F642F831268
:100ECA0003130618692F6A2F872F0130F3070318B7
:100EDA00F40A0030F4077408803AFF0080307F0279
:100EEA00031D792F0A307302031C7C2F7D2F7F2F5D
:100EFA00F301F4017308203E84008313000883126F
:100F0A0003138800861C8A2F8B2FB22F0630F2001B
:100F1A001330F100AD30F000F00B912FF10B912F4F
:100F2A00F20B912F982F83120313861C9D2F9E2F4D
:100F3A00B22FFF30F3070318F40AFF30F407F41F47
:100F4A00A72FA82FAC2F0930F3000030F400730844
:100F5A00203E84008313000888007408803AFF004A
:100F6A0080307F02031DBB2F033073020318BE2F8C
:100F7A00BF2FC52F83120313061186150616532F8A
:100F8A007408803AFF0080307F02031DCE2F0330A1
:100F9A007302031CD12FD22FE52F7408803AFF0069
:100FAA0080307F02031DDB2F073073020318DE2F08
:100FBA00DF2FE52F83120313061586110616532F0A
:100FCA0083120313061586150612532F0A128A1165
:100FDA00002883132A30FD000730FE002530FF0069
:100FEA00203084000A128A1133270A128A118301D7
:060FFA000A128A11422FC9
:02400E00FA3F77
:00000001FF
