:060000000A128A11EE2F26
:100012004130831203139F008030831603139F0025
:100022000800403479342434303419341234023420
:10003200783400341034C034F934A434B0349934F0
:1000420092348234F83480349034FA01FB01760819
:10005200770403192D282E286528FC01FC0A3C2868
:1000620001300310F60DF70DFF3E031D322801305B
:10007200FF007F08FC07F71F3F2840283128013086
:100082000310FA0DFB0DFF3E031D4128770879028C
:10009200031D4D2876087802031C50285128582841
:1000A2007608F8027708031CF903F9027A14013082
:1000B2000310F70CF60CFF3E031D59280130FC0219
:1000C200031D6428652840287B08F7007A08F6009B
:1000D2000800031083120313520D530DD90059085F
:1000E200031D742875287E280030D3000030D2000A
:1000F2000030D1000030D000E1285008D40051086F
:10010200D5005208D6005308D7001F300310D70C71
:10011200D60CD50CD40CFF3E031D87285408D800FA
:10012200D217FF30D005FF30D105FF30D2050030A5
:10013200D3059630D902D91F9F28A028BA2859087A
:10014200803A973E0318A628A728A82875280130C8
:100152000310D30CD20CD10CD00CFF3E031DA928E6
:100162000130FF007F08D907031DB828B928A82845
:10017200D12820305902031CBF28C028CC2875285A
:100182000130D4000310D00DD10DD20DD30DD40BFC
:10019200C3280130D9025908031DD028D128C1280B
:1001A20058080319D528D628E128D009D109D2093F
:1001B200D309D00A0319D10A0319D20A0319D30A9F
:1001C2000800831203135D08D3005C08D2005B08A9
:1001D200D1005A08D0000A128A116A200A128A1122
:1001E200831203135108E3005008E2005D08B500D2
:1001F2005C08B4005B08B3005A08B2006208A000B1
:100202006308A1000030A11BFF30A200A30001304F
:100212000A128A118B210A128A11831203132308EC
:10022200B1002208B0002108AF002008AE000A1277
:100232008A15ED260A128A11831203133108BD00B2
:100242003008BC002F08BB002E08BA004130B900AC
:100252002030B8000030B7000030B6000A128A1110
:10026200A9240A128A11831203133908D300380809
:10027200D2003708D1003608D0000A128A116A204B
:100282000A128A11831203135108E1005008E00098
:10029200E401E501831203136208AA3E840083137A
:1002A200000886000714213083120313DF00753023
:1002B200DE00DE0B5A29DF0B5A295F298312031352
:1002C20007106008AA3E8400831300088600871482
:1002D200213083120313DF007530DE00DE0B6F293D
:1002E200DF0B6F2974298312031387100130E4078F
:1002F2000318E50A0030E5076508803AFF00803000
:100302007F02031D86297D306402031C89298A2904
:100312004B29080083120313A80028080319922905
:100322009329A729A31F96299729A7292009AA005B
:100332002109AB002209AC002309AD00AA0A031966
:10034200AB0A0319AC0A0319AD0AAF292308AD00A1
:100352002208AC002108AB002008AA0023082204CE
:1003620021042004031DB629B729C0290030A300A7
:100372000030A2000030A1000030A000442A9630D4
:10038200A900D0290130FF007F08A907013003101E
:10039200AD0CAC0CAB0CAA0CFF3E031DC829FE3001
:1003A2002D05031DD529D629C329F2290130FF00C5
:1003B2007F08A9070130AA07003003180130AB07F4
:1003C200003003180130AC07003003180130AD07CC
:1003D20001300310AD0CAC0CAB0CAA0CFF3E031D9C
:1003E200EA29FF302D05031DF729F829D729042A08
:1003F2000130A9020130A4000310AA0DAB0DAC0D0F
:10040200AD0DA40BFD29AC1B072A082A0E2A0230C7
:10041200290203180D2A0E2AF9292918112A122A4B
:100422001A2AFF30AA05FF30AB057F30AC05FF303A
:10043200AD050310A90C2908A400A501A601A70176
:1004420018300310A40DA50DA60DA70DFF3E031D28
:10045200222A2408AA042508AB042608AC0427088B
:10046200AD0428080319362A372A3C2AA31F3A2A40
:100472003B2A3C2AAD172D08A3002C08A2002B080A
:10048200A1002A08A000080073088039F800730848
:1004920083120313A0002007FA00F21F512A522AE6
:1004A200532A7A147A080319572A582A682A7A0A88
:1004B200031D5C2A5D2A652A0030F3000030F20039
:1004C2000030F1000030F000F217F301702A003022
:1004D200F3000030F2000030F1000030F000770845
:1004E2008039F900790878060319782A792A7A2A54
:1004F20078177708A0002007F900F61F812A822AC0
:10050200832A791479080319872A882A982A790A6A
:10051200031D8C2A8D2A952A0030F7000030F60040
:100522000030F5000030F400F617F701A02A003081
:10053200F7000030F6000030F5000030F4007A08D1
:1005420079020318A52AA62ACC2A781FA92AAA2A40
:10055200AE2A8030FF007F08F8067A08FB0079088F
:10056200FA007B08F9007008FB007408F0007B08B1
:10057200F4007108FB007508F1007B08F5007208B1
:10058200FB007608F2007B08F6007308FB00770890
:10059200F3007B08F700FB017908A000A101210804
:1005A200A3007A082002A200031CA3032308803AB6
:1005B200FF0080307F02031DE02A1A302202031C52
:1005C200E32AE42A1D2B7308720471047004031DCC
:1005D200EB2AED2A0130EE2A0030FB000030F30056
:1005E2000030F2000030F1000030F0007908FA002B
:1005F200232B7B1CFD2AFE2A072B7B088312031365
:10060200A0000310200C0138FB00092B0310FB0C87
:10061200701C0C2B0D2B0E2BFB17013083120313B6
:10062200A000730DF30CF20CF10CF00CA00B122BCA
:100632000130FF007F08FA0779087A02031C222B97
:10064200232BFA2A781B262B272B742B7A08031DBF
:100652002B2B2C2B352B0030F3000030F200003016
:10066200F1000030F000A82C7408F007750803119F
:100672000318013E03193E2BF107760803110318F4
:10068200013E0319452BF207770803110318013EB7
:1006920003194C2BF307731C4F2B502B2C2C7B1C58
:1006A200532B542B5D2B7B0883120313A0000310E2
:1006B200200C0138FB005F2B0310FB0C701C622B1B
:1006C200632B642BFB17013083120313A000730DFD
:1006D200F30CF20CF10CF00CA00B682B0130FF00B4
:1006E2007F08FA072C2C7308803AFF007708803ABB
:1006F2007F02031D862B76087202031D862B750866
:100702007102031D862B740870020318892B8A2B31
:10071200E42BFF3083120313A000FF30A100FF304F
:10072200A200FF30A3007408A4007508A500760893
:10073200A6007708A7007008A4027108031C710FB5
:10074200A32BA42BA5027208031C720FA92BAA2BA0
:10075200A6027308031C730FAF2BB02BA702240849
:10076200A00725080318250FB72BB82BA1072608C9
:100772000318260FBD2BBE2BA20727080318270A32
:10078200A3072308F3002208F2002108F100200841
:10079200F0008030FF007F08F806FB09FB0A7B08A7
:1007A200031DD42BD52BF22B0130F0070030031898
:1007B2000130F107003003180130F207003003184E
:1007C2000130F307F22B7408F0027508031C750F51
:1007D200F1027608031C760FF2027708031C770FEA
:1007E200F3027308720471047004031DF92BFA2BCF
:1007F200282C7B08031DFE2BFF2B282C0030F30036
:100802000030F2000030F1000030F000A82C01307E
:1008120083120313A0000310F00DF10DF20DF30D7E
:10082200A00B0C2CFB1F162C172C182C70147B1CE5
:100832001B2C1C2C1F2C0314FB0D212C0310FB0D55
:100842007A080319252C262C282C0130FA02F21FD3
:100852002B2C2C2C082CF901FB1F302C312C3F2C7B
:100862007B087F390319362C372C3A2CF901F90A07
:100872003F2C701C3D2C3E2C3F2C372C7908031941
:10088200432C442C7A2C0130F0070030031801303D
:10089200F107003003180130F2070030031801306D
:1008A200F307731C552C562C7A2C700883120313F1
:1008B200A0007108A1007208A2007308A300013011
:1008C200A400230DA30CA20CA10CA00CA40B622C5F
:1008D2002308F3002208F2002108F1002008F000AA
:1008E2007A0A0319752C762C7A2C0130FF007F08C6
:1008F200FA077A0A03197E2C7F2C842C7A08031DAE
:10090200832C842C922C0030F3000030F200003053
:10091200F1000030F0007A08031D902C912C922CEB
:10092200F8017A1C952C962C982CF2179C2C7F306F
:10093200FF007F08F2057A0883120313A000031058
:10094200200CF300F81FA62CA72CA82CF3170800E4
:100952008312031339088039C3003908BE003E07E9
:10096200C900B81FB52CB62CB72C49144908031975
:10097200BB2CBC2CCB2C490A031DC02CC12CC92C6E
:100982000030B9000030B8000030B7000030B600C7
:10099200B817D32C0030B9000030B8000030B700CF
:1009A2000030B6003D088039FF007F08C3063D08CD
:1009B200BE003E07C800BC1FDF2CE02CE12C48140F
:1009C20048080319E52CE62CF52C480A031DEA2CED
:1009D200EB2CF32C0030BD000030BC000030BB001B
:1009E2000030BA00BC17FD2C0030BD000030BC0046
:1009F2000030BB000030BA0048080319012D022D57
:100A0200072D4908031D062D072D102D0030B900B2
:100A12000030B8000030B7000030B600ED2F3608C5
:100A2200F0003C080A128A1536270A128A11710848
:100A320083120313CF007008CE004E08BE00BF0120
:100A4200C001C1014108C7004008C6003F08C500F7
:100A52003E08C4004F08BE00BF01C001C1014108E9
:100A6200CD004008CC003F08CB003E08CA00370842
:100A7200F0003B080A128A1536270A128A117108F9
:100A820083120313CF007008CE004E08BE00BF01D0
:100A9200C001C1013E08C4073F0803110318013E0B
:100AA2000319542DC507400803110318013E031909
:100AB2005B2DC607410803110318013E0319622D7D
:100AC200C7074F08BE00BF01C001C1013E08CA07E7
:100AD2003F0803110318013E0319702DCB0740088C
:100AE20003110318013E0319772DCC0741080311A6
:100AF2000318013E03197E2DCD073808F0003A088D
:100B02000A128A1536270A128A11710883120313F0
:100B1200CF007008CE004E08BE00BF01C001C10167
:100B22003E08C4073F0803110318013E03199A2D1A
:100B3200C507400803110318013E0319A12DC6077A
:100B4200410803110318013E0319A82DC7074F08D6
:100B5200BE00BF01C001C1013E08CA073F08031120
:100B62000318013E0319B62DCB07400803110318E1
:100B7200013E0319BD2DCC07410803110318013EA4
:100B82000319C42DCD070830BE000310C40DC50DD6
:100B9200C60DC70DBE0BC62D3708F0003A080A1263
:100BA2008A1536270A128A11710883120313CF009D
:100BB2007008CE004E08BE004F08BF00C001C10140
:100BC2003E08C4073F0803110318013E0319EA2D2A
:100BD200C507400803110318013E0319F12DC6078A
:100BE200410803110318013E0319F82DC7073608FF
:100BF200F0003B080A128A1536270A128A11710878
:100C020083120313CF007008CE004E08BE004F08B7
:100C1200BF00C001C1013E08C4073F080311031809
:100C2200013E0319152EC507400803110318013EA2
:100C320003191C2EC607410803110318013E0319AC
:100C4200232EC7070830BE000310C40DC50DC60D04
:100C5200C70DBE0B252E3608F0003A080A128A1577
:100C620036270A128A11710883120313CF00700803
:100C7200CE004E08BE004F08BF00C001C1013E08B1
:100C8200C4073F0803110318013E0319492EC50783
:100C9200400803110318013E0319502EC6074108EC
:100CA20003110318013E0319572EC7073708F00036
:100CB2003C080A128A1536270A128A117108831211
:100CC2000313CF007008CE004E08BE004F08BF00CD
:100CD200C001C1013E08CA073F0803110318013EC3
:100CE2000319742ECB07400803110318013E0319A0
:100CF2007B2ECC07410803110318013E0319822EF3
:100D0200CD073808F0003B080A128A1536270A1266
:100D12008A11710883120313CF007008CE004E08A7
:100D2200BE004F08BF00C001C1013E08CA073F080C
:100D320003110318013E03199F2ECB07400803112C
:100D42000318013E0319A62ECC074108031103180C
:100D5200013E0319AD2ECD073808F0003C080A12F7
:100D62008A1536270A128A11710883120313CF00DB
:100D72007008CE004E08BE004F08BF00C001C1017E
:100D820008300310BE0DBF0DC00DC10DFF3E031D87
:100D9200C22E3E08CA073F0803110318013E031979
:100DA200D32ECB07400803110318013E0319DA2E94
:100DB200CC07410803110318013E0319E12ECD07A8
:100DC2004408BE004508BF004608C0004708C100ED
:100DD20018300310C10CC00CBF0CBE0CFF3E031D2B
:100DE200EA2E3E08CA073F0803110318013E031901
:100DF200FB2ECB07400803110318013E0319022FF3
:100E0200CC07410803110318013E0319092FCD072E
:100E12000830BE000310C40DC50DC60DC70DBE0BB4
:100E22000B2F49084807BE00BF01BF0D3E08823E96
:100E3200CE003F080318013EFF3ECF003D2F013098
:100E4200BE000310CA0DCB0DCC0DCD0DBE0B222F53
:100E5200C71F2C2F2D2F2E2F4A140130BE00031036
:100E6200C40DC50DC60DC70DBE0B302FFF30CE070A
:100E72000318CF0AFF30CF07CC1F402F412F202F5E
:100E8200C801C71F452F462F622FFF304405BE0001
:100E9200FF304505BF00FF304605C0007F304705E3
:100EA200C100410840043F043E040319592F5A2F40
:100EB2005D2FC801C80A622F4A1C602F612F622F62
:100EC2005A2F48080319662F672F982F0130CA0737
:100ED200003003180130CB07003003180130CC0773
:100EE200003003180130CD074D1C782F792F982F31
:100EF2004A08BE004B08BF004C08C0004D08C100A4
:100F02000130C200410DC10CC00CBF0CBE0CC20BA3
:100F1200832F4108CD004008CC003F08CB003E089B
:100F2200CA000130CE070318CF0A0030CF074F089E
:100F3200803AFF0080307F02031DA12FFF304E0256
:100F4200031CA42FA52FB02F7F3083120313CD00D3
:100F52008030CC000030CB000030CA00E12F831279
:100F620003134F08803AFF0080307F02031DBB2F1E
:100F720001304E020318BE2FBF2FCB2F0030831239
:100F82000313CD000030CC000030CB000030CA008B
:100F9200C301E12F831203134E08C900FF30CA05B3
:100FA200FF30CB057F30CC050030CD05491CDA2F50
:100FB200DB2FDC2FCC174908BE0003103E0CCD00FE
:100FC2004308FF007F08CD044D08B9004C08B80063
:100FD2004B08B7004A08B60008008313B430FD007E
:100FE2000030FE001230FF00A03084000A128A1581
:0E0FF200DE260A128A1183010A128A15972F31
:101DB4007E088A007F0882000A128A15DA260A122F
:101DC4008A158000840A04087D0603190034FF0A7A
:101DD4000319FE0ADE2E803083120313B106350880
:101DE400F3003408F2003308F1003208F00031083F
:101DF400F7003008F6002F08F5002E08F4000A1248
:101E04008A1145220A128A15730883120313B1003A
:101E14007208B0007108AF007008AE000800F40149
:101E2400F501701C162F172F1D2F7208F4070318C5
:101E3400F50A7308F50701300310F20DF30DFF3EA8
:101E4400031D1E2F01300310F10CF00CFF3E031D87
:101E5400252F70087104031D302F312F132F75089F
:101E6400F1007408F0000800F800F401F5017008AE
:101E7400F200F3017208F6007308F700781C432F90
:101E8400442F4A2F7608F4070318F50A7708F50754
:101E940001300310F60DF70DFF3E031D4B2F031009
:101EA400F80C7808031D572F582F402F7508F100A0
:101EB4007408F00008007108803AFF0080307F0247
:101EC400031D662F08307002031C692F6A2F6D2FC3
:101ED400F001F101962FC530FF007F088312031330
:101EE4009F057008F20002300310F20DFF3E031D3F
:101EF400762F0310720DFF007F089F040D30F3004E
:101F0400FB30F200F20B842FF30B842F892F831202
:101F140003131F151F198F2F902F8C2F1E08F100EC
:101F2400831603131E08F0000800831603138601AA
:101F3400831203138601831603138701FF30850080
:101F44000A128A1109200A128A150030F000F100E1
:101F54000A128A155D270A128A157108831203135F
:101F6400EF007008EE00FF30F2000330F3006F085A
:101F7400F1006E08F0000A128A1511270A128A1558
:101F84007108F9007008F8003230F6000030F700EC
:101F94000A128A1126200A128A157608831203135C
:101FA400E6007708E700E801E9016908A30068088A
:101FB400A2006708A1006608A00000300A128A1176
:101FC4008B210A128A15831203132308ED002208B9
:101FD400EC002108EB002008EA006D08DD006C0825
:101FE400DC006B08DB006A08DA000A128A11E220BE
:0C1FF4000A128A15A72F0A128A11002871
:02400E00FA3F77
:00000001FF
