:060000000A128A11EE2F26
:100D40003F3406345B344F3466346D347D340734BD
:100D50007F346F347E088A007F0882000A128A116D
:100D6000AA260A128A118000840A04087D06031943
:100D70000034FF0A0319FE0AAE2EF501F31FC12E3F
:100D8000C22EC92EF209F309F20A0319F30AF5017A
:100D9000F50AF11FCC2ECD2ED22EF009F109F00A62
:100DA0000319F10A700871040319D72ED82E072FE2
:100DB000F401F40AE62E01300310F00DF10DFF3EB0
:100DC000031DDC2E0130FF007F08F407F11FE92E20
:100DD000EA2EDB2E71087302031DF02E70087202DA
:100DE000031CF32EF42EFA2E7008F2027108031C75
:100DF000F303F30201300310F10CF00CFF3E031D6E
:100E0000FB2E0130F402031D062F072FEA2E750872
:100E100003190B2F0C2F112FF209F309F20A0319F2
:100E2000F30A7308F1007208F0000800F501F11FE1
:100E30001A2F1B2F222FF009F109F00A0319F10ACA
:100E4000F501F50AF31F252F262F2F2FF209F3099D
:100E5000F20A0319F30A0130FF007F08F506F601D4
:100E6000F701700871040319362F372F6E2FF40124
:100E7000F40A452F01300310F00DF10DFF3E031D64
:100E80003B2F0130FF007F08F407F11F482F492F47
:100E90003A2F01300310F60DF70DFF3E031D4A2FC8
:100EA00071087302031D562F70087202031C592F1C
:100EB0005A2F612F7008F2027108031CF303F3022A
:100EC000761401300310F10CF00CFF3E031D622F6D
:100ED0000130F402031D6D2F6E2F492F7508031981
:100EE000722F732F782FF609F709F60A0319F70AFC
:100EF0007708F1007608F000080001308312031330
:100F0000AE000030AF008316031386018701831201
:100F10000313860187010A30F0000030F1008312CC
:100F200003132F08F3002E08F2000A128A11162765
:100F30000A128A11710883120313AB007008AA0009
:100F40000A30F0000030F1002F08F3002E08F20004
:100F50000A128A11BD260A128A117108831203131C
:100F6000AD007008AC00013087002A08203E8400E4
:100F7000831300088600023087002C08203E84007E
:100F8000000886001A30FA005E30F9006E30F80072
:100F9000F80BC82FF90BC82FFA0BC82F000001302F
:100FA00083120313AE070318AF0A0030AF072F08F0
:100FB000803AFF0080307F02031DE02F64302E0254
:100FC000031CE32FE42F8B2F013083120313AE0099
:100FD0000030AF008B2F0A128A11002883132A30A9
:100FE000FD000630FE00A030FF00203084000A1211
:100FF0008A11AE260A128A1183010A128A117D2FE4
:02400E00FA3F77
:00000001FF
