:060000000A128A11EC2F28
:100D0400C034F934A434B034993492348234F8348D
:100D140080349034453400347E088A007F08820091
:100D24000A128A118E260A128A118000840A040883
:100D34007D0603190034FF0A0319FE0A922E831656
:100D440003138601071087107D08F9007C08F8005A
:100D54000A128A1121270A128A110130FC0703188A
:100D6400FD0A0030FD077D08803AFF0080307F02D5
:100D7400031DBE2E63307C02031CC12EC22EA62E80
:100D8400FC01FD01A62E0A128A110028F501F31FA9
:100D9400CC2ECD2ED42EF209F309F20A0319F30A4C
:100DA400F501F50AF11FD72ED82EDD2EF009F10931
:100DB400F00A0319F10A700871040319E22EE32EF4
:100DC400122FF401F40AF12E01300310F00DF10D8D
:100DD400FF3E031DE72E0130FF007F08F407F11FDB
:100DE400F42EF52EE62E71087302031DFB2E7008F7
:100DF4007202031CFE2EFF2E052F7008F2027108EA
:100E0400031CF303F30201300310F10CF00CFF3E5A
:100E1400031D062F0130F402031D112F122FF52E8E
:100E240075080319162F172F1C2FF209F309F20A5C
:100E34000319F30A7308F1007208F00008000A307D
:100E4400F0000030F1007908F3007808F2000A128B
:100E54008A1185270A128A11710883120313AD00BF
:100E64007008AC000A30F0000030F1007908F3009B
:100E74007808F2000A128A11C8260A128A11710827
:100E840083120313AF007008AE00B001B1018312E6
:100E940003132C08203E84008313000886000714E3
:100EA4002130FB007630FA00FA0B562FFB0B562F3D
:100EB40000008312031307102E08203E84008313BE
:100EC4000008860087142130FB007630FA00FA0B04
:100ED400692FFB0B692F0000831203138710013065
:100EE400B0070318B10A0030B1073108803AFF0097
:100EF40081307F02031D802F2C303002031C832F8E
:100F0400842F492F0800F501F11F892F8A2F912F73
:100F1400F009F109F00A0319F10AF501F50AF31FC2
:100F2400942F952F9E2FF209F309F20A0319F30A5D
:100F34000130FF007F08F506F601F701700871041F
:100F44000319A52FA62FDD2FF401F40AB42F0130C5
:100F54000310F00DF10DFF3E031DAA2F0130FF0019
:100F64007F08F407F11FB72FB82FA92F0130031002
:100F7400F60DF70DFF3E031DB92F71087302031D13
:100F8400C52F70087202031CC82FC92FD02F7008F8
:100F9400F2027108031CF303F30276140130031008
:100FA400F10CF00CFF3E031DD12F0130F402031DA0
:100FB400DC2FDD2FB82F75080319E12FE22FE72F5F
:100FC400F609F709F60A0319F70A7708F100760813
:100FD400F000080083132C30FD000630FE00823040
:100FE400FF00203084000A128A1192260A128A1104
:0C0FF400FC01FD0183010A128A11A12EEC
:02400E00FA3F77
:00000001FF
