:060000000A128A11EE2F26
:100E1E003F3406345B344F3466346D347D340734DE
:100E2E007F346F347E088A007F0882000A128A118E
:100E3E0019270A128A118000840A04087D060319F4
:100E4E000034FF0A0319FE0A1D2F831603138601B1
:100E5E00063087008312031386018701F301F40124
:100E6E00200886008312031387183E2F3F2F6F2F03
:100E7E000630F2001330F100AD30F000F00B452FCC
:100E8E00F10B452FF20B452F4C2F831203138718AE
:100E9E00512F522F6F2F0130F3070318F40A003031
:100EAE00F4077408803AFF0080307F02031D612F23
:100EBE000A307302031C642F652F672FF301F401B0
:100ECE007308203E840083130008831203138600E8
:100EDE00071D722F732F9A2F0630F2001330F10078
:100EEE00AD30F000F00B792FF10B792FF20B792F3B
:100EFE00802F83120313071D852F862F9A2FFF3005
:100F0E00F3070318F40AFF30F407F41F8F2F902F06
:100F1E00942F0930F3000030F4007308203E840053
:100F2E0083130008860073087404031D9F2FA02FDF
:100F3E00A42F871507168716392F7408803AFF00DD
:100F4E0080307F02031DAD2F033073020318B02FC4
:100F5E00B12FB72F83120313871107168716392F58
:100F6E007408803AFF0080307F02031DC02F0330CB
:100F7E007302031CC32FC42FD72F7408803AFF00AF
:100F8E0080307F02031DCD2F073073020318D02F40
:100F9E00D12FD72F83120313871507128716392FD8
:100FAE007408803AFF0080307F02031DE02F073067
:100FBE007302031CE32FE42FEA2F8312031387150A
:100FCE0007168712392F392F0A128A110028831318
:100FDE002A30FD000730FE000F30FF002030840065
:100FEE000A128A111D270A128A1183010A128A1106
:020FFE002C2F96
:02400E00FA3F77
:00000001FF
