:060000000A128A11FC2F18
:100EB2008316031389018312031389018312031317
:100EC20009140330F2008A30F1005530F000F00BC3
:100ED200682FF10B682FF20B682F6F2F8312031309
:100EE20009100330F2008A30F1005530F000F00BA7
:100EF200782FF10B782FF20B782F7F2F83120313A9
:100F020089140330F2008A30F1005530F000F00B02
:100F1200882FF10B882FF20B882F8F2F8312031348
:100F220089100330F2008A30F1005530F000F00BE6
:100F3200982FF10B982FF20B982F9F2F83120313E8
:100F420009150330F2008A30F1005530F000F00B41
:100F5200A82FF10BA82FF20BA82FAF2F8312031388
:100F620009110330F2008A30F1005530F000F00B25
:100F7200B82FF10BB82FF20BB82FBF2FF301F401EA
:100F8200831203130914891409151A30F2005E3012
:100F9200F1006E30F000F00BCC2FF10BCC2FF20BE6
:100FA200CC2F0000831203130910891009111A3083
:100FB200F2005E30F1006E30F000F00BDE2FF10B2C
:100FC200DE2FF20BDE2F00000130F3070318F40AC4
:100FD2000030F4077408803AFF0080307F02031D5E
:100FE200F42F02307302031CF72FF82FC12F5F2F4B
:0E0FF2000A128A11002883010A128A11592F4F
:02400E00FA3F77
:00000001FF
