:060000000A128A110C280F
:10000800FE00030EF0000A08F1000A128A114428C3
:100018000A128A110F28F501F60183010A128A11C2
:1000280015288316031386018312031386010A1207
:100038008A1165200A128A118312031306114D30A2
:10004800F4001930F3004F30F200F20B2928F30BBB
:100058002928F40B292830288312031306154D305C
:10006800F4001930F3004F30F200F20B3928F30B8B
:100078003928F40B3928402820280A128A110C281C
:100088000B1D472848285E280B113C3083120313A8
:1000980081000130F5070318F60A0030F60718301A
:1000A80075067604031D59285A285E2802308606EC
:1000B800F501F60171088A00700E8300FE0E7E0EAF
:1000C80009008B178B16831603130114811401156D
:0E00D800811181123C30831203138100080055
:02400E003A3F37
:00000001FF
