:060000000A128A11FC2F18
:100E0800831603138601831203138601FC308312B1
:100E1800031386001A30F2005E30F1006E30F000E5
:100E2800F00B142FF10B142FF20B142F0000F930D4
:100E38008312031386001A30F2005E30F1006E3020
:100E4800F000F00B252FF10B252FF20B252F0000BA
:100E5800F3308312031386001A30F2005E30F1007B
:100E68006E30F000F00B362FF10B362FF20B362FC9
:100E78000000E7308312031386001A30F2005E3058
:100E8800F1006E30F000F00B472FF10B472FF20BFB
:100E9800472F0000CF308312031386001A30F20068
:100EA8005E30F1006E30F000F00B582FF10B582F28
:100EB800F20B582F00009F308312031386001A305C
:100EC800F2005E30F1006E30F000F00B692FF10B8C
:100ED800692FF20B692F00003F308312031386003D
:100EE8001A30F2005E30F1006E30F000F00B7A2F0D
:100EF800F10B7A2FF20B7A2F00003F308312031385
:100F080086001A30F2005E30F1006E30F000F00B0F
:100F18008B2FF10B8B2FF20B8B2F00009F3083123E
:100F2800031386001A30F2005E30F1006E30F000D4
:100F3800F00B9C2FF10B9C2FF20B9C2F0000CF3055
:100F48008312031386001A30F2005E30F1006E300F
:100F5800F000F00BAD2FF10BAD2FF20BAD2F000011
:100F6800E7308312031386001A30F2005E30F10076
:100F78006E30F000F00BBE2FF10BBE2FF20BBE2F20
:100F88000000F3308312031386001A30F2005E303B
:100F9800F1006E30F000F00BCF2FF10BCF2FF20BDA
:100FA800CF2F0000F9308312031386001A30F200A5
:100FB8005E30F1006E30F000F00BE02FF10BE02F07
:100FC800F20BE02F0000FC308312031386001A3066
:100FD800F2005E30F1006E30F000F00BF12FF10BF3
:100FE800F12FF20BF12F00000A2F0A128A110028A4
:080FF80083010A128A11042F83
:02400E00FA3F77
:00000001FF
